{
  "contractName": "TwinStaking",
  "abi": [
    {
      "inputs": [
        {
          "internalType": "address",
          "name": "_twinToken",
          "type": "address"
        },
        {
          "internalType": "address",
          "name": "_admin",
          "type": "address"
        }
      ],
      "stateMutability": "nonpayable",
      "type": "constructor"
    },
    {
      "anonymous": false,
      "inputs": [
        {
          "indexed": true,
          "internalType": "address",
          "name": "previousOwner",
          "type": "address"
        },
        {
          "indexed": true,
          "internalType": "address",
          "name": "newOwner",
          "type": "address"
        }
      ],
      "name": "OwnershipTransferred",
      "type": "event"
    },
    {
      "inputs": [
        {
          "internalType": "address",
          "name": "",
          "type": "address"
        }
      ],
      "name": "isAdmin",
      "outputs": [
        {
          "internalType": "uint256",
          "name": "",
          "type": "uint256"
        }
      ],
      "stateMutability": "view",
      "type": "function"
    },
    {
      "inputs": [],
      "name": "maturityPeriod",
      "outputs": [
        {
          "internalType": "uint256",
          "name": "",
          "type": "uint256"
        }
      ],
      "stateMutability": "view",
      "type": "function"
    },
    {
      "inputs": [],
      "name": "maxTwinInPool",
      "outputs": [
        {
          "internalType": "uint256",
          "name": "",
          "type": "uint256"
        }
      ],
      "stateMutability": "view",
      "type": "function"
    },
    {
      "inputs": [],
      "name": "owner",
      "outputs": [
        {
          "internalType": "address",
          "name": "",
          "type": "address"
        }
      ],
      "stateMutability": "view",
      "type": "function"
    },
    {
      "inputs": [],
      "name": "percentPerDay",
      "outputs": [
        {
          "internalType": "uint256",
          "name": "",
          "type": "uint256"
        }
      ],
      "stateMutability": "view",
      "type": "function"
    },
    {
      "inputs": [],
      "name": "percentageRate",
      "outputs": [
        {
          "internalType": "uint256",
          "name": "",
          "type": "uint256"
        }
      ],
      "stateMutability": "view",
      "type": "function"
    },
    {
      "inputs": [],
      "name": "poolStatus",
      "outputs": [
        {
          "internalType": "uint256",
          "name": "",
          "type": "uint256"
        }
      ],
      "stateMutability": "view",
      "type": "function"
    },
    {
      "inputs": [],
      "name": "renounceOwnership",
      "outputs": [],
      "stateMutability": "nonpayable",
      "type": "function"
    },
    {
      "inputs": [
        {
          "internalType": "address",
          "name": "newOwner",
          "type": "address"
        }
      ],
      "name": "transferOwnership",
      "outputs": [],
      "stateMutability": "nonpayable",
      "type": "function"
    },
    {
      "inputs": [],
      "name": "twinToken",
      "outputs": [
        {
          "internalType": "contract IERC20",
          "name": "",
          "type": "address"
        }
      ],
      "stateMutability": "view",
      "type": "function"
    },
    {
      "inputs": [
        {
          "internalType": "address",
          "name": "",
          "type": "address"
        }
      ],
      "name": "userHasStaked",
      "outputs": [
        {
          "internalType": "uint256",
          "name": "",
          "type": "uint256"
        }
      ],
      "stateMutability": "view",
      "type": "function"
    },
    {
      "inputs": [
        {
          "internalType": "address",
          "name": "",
          "type": "address"
        }
      ],
      "name": "userToStakeAmount",
      "outputs": [
        {
          "internalType": "uint256",
          "name": "",
          "type": "uint256"
        }
      ],
      "stateMutability": "view",
      "type": "function"
    },
    {
      "inputs": [
        {
          "internalType": "address",
          "name": "",
          "type": "address"
        }
      ],
      "name": "userToStakeStart",
      "outputs": [
        {
          "internalType": "uint256",
          "name": "",
          "type": "uint256"
        }
      ],
      "stateMutability": "view",
      "type": "function"
    },
    {
      "inputs": [
        {
          "internalType": "uint256",
          "name": "_status",
          "type": "uint256"
        }
      ],
      "name": "changePoolStatus",
      "outputs": [],
      "stateMutability": "nonpayable",
      "type": "function"
    },
    {
      "inputs": [
        {
          "internalType": "uint256",
          "name": "_apy",
          "type": "uint256"
        }
      ],
      "name": "changeAPY",
      "outputs": [
        {
          "internalType": "uint256",
          "name": "",
          "type": "uint256"
        }
      ],
      "stateMutability": "nonpayable",
      "type": "function"
    },
    {
      "inputs": [
        {
          "internalType": "uint256",
          "name": "_period",
          "type": "uint256"
        }
      ],
      "name": "changeMaturityPeriod",
      "outputs": [],
      "stateMutability": "nonpayable",
      "type": "function"
    },
    {
      "inputs": [
        {
          "internalType": "uint256",
          "name": "_amount",
          "type": "uint256"
        }
      ],
      "name": "depositTwin",
      "outputs": [],
      "stateMutability": "nonpayable",
      "type": "function"
    },
    {
      "inputs": [],
      "name": "withdrawTwin",
      "outputs": [],
      "stateMutability": "nonpayable",
      "type": "function"
    },
    {
      "inputs": [
        {
          "internalType": "uint256",
          "name": "_amount",
          "type": "uint256"
        }
      ],
      "name": "stakeToken",
      "outputs": [],
      "stateMutability": "nonpayable",
      "type": "function"
    },
    {
      "inputs": [],
      "name": "unstakeToken",
      "outputs": [],
      "stateMutability": "nonpayable",
      "type": "function"
    },
    {
      "inputs": [],
      "name": "claimRewards",
      "outputs": [],
      "stateMutability": "nonpayable",
      "type": "function"
    },
    {
      "inputs": [
        {
          "internalType": "address",
          "name": "_user",
          "type": "address"
        }
      ],
      "name": "checkRewardCycle",
      "outputs": [
        {
          "internalType": "uint256",
          "name": "",
          "type": "uint256"
        }
      ],
      "stateMutability": "view",
      "type": "function"
    },
    {
      "inputs": [],
      "name": "getPoolStatus",
      "outputs": [
        {
          "internalType": "uint256",
          "name": "",
          "type": "uint256"
        }
      ],
      "stateMutability": "view",
      "type": "function"
    },
    {
      "inputs": [
        {
          "internalType": "address",
          "name": "_user",
          "type": "address"
        }
      ],
      "name": "getUserStakeAmount",
      "outputs": [
        {
          "internalType": "uint256",
          "name": "",
          "type": "uint256"
        }
      ],
      "stateMutability": "view",
      "type": "function"
    },
    {
      "inputs": [],
      "name": "getMaturityPeriod",
      "outputs": [
        {
          "internalType": "uint256",
          "name": "",
          "type": "uint256"
        }
      ],
      "stateMutability": "view",
      "type": "function"
    }
  ],
  "bytecode": "0x60806040523480156200001157600080fd5b5060405162001de438038062001de483398181016040528101906200003791906200025c565b620000576200004b6200012660201b60201c565b6200012e60201b60201c565b6001808190555081600260006101000a81548173ffffffffffffffffffffffffffffffffffffffff021916908373ffffffffffffffffffffffffffffffffffffffff16021790555069d3c21bcecceda100000060048190555060016003819055506001600b60008373ffffffffffffffffffffffffffffffffffffffff1673ffffffffffffffffffffffffffffffffffffffff1681526020019081526020016000208190555062278d0060078190555064746a5288006005819055506351a673656006819055505050620002a3565b600033905090565b60008060009054906101000a900473ffffffffffffffffffffffffffffffffffffffff169050816000806101000a81548173ffffffffffffffffffffffffffffffffffffffff021916908373ffffffffffffffffffffffffffffffffffffffff1602179055508173ffffffffffffffffffffffffffffffffffffffff168173ffffffffffffffffffffffffffffffffffffffff167f8be0079c531659141344cd1fd0a4f28419497f9722a3daafe3b4186f6b6457e060405160405180910390a35050565b600080fd5b600073ffffffffffffffffffffffffffffffffffffffff82169050919050565b60006200022482620001f7565b9050919050565b620002368162000217565b81146200024257600080fd5b50565b60008151905062000256816200022b565b92915050565b60008060408385031215620002765762000275620001f2565b5b6000620002868582860162000245565b9250506020620002998582860162000245565b9150509250929050565b611b3180620002b36000396000f3fe608060405234801561001057600080fd5b50600436106101735760003560e01c80637f79496c116100de578063bebaa75b11610097578063e134ddd111610071578063e134ddd114610428578063f022869214610432578063f036af9214610450578063f2fde38b1461046e57610173565b8063bebaa75b146103d2578063cafafef5146103f0578063cda6b8471461040c57610173565b80637f79496c1461030e5780638da5cb5b1461032c5780638f6ad7bc1461034a578063a3d2039c14610368578063a909d87814610398578063b248ff39146103b657610173565b80634113f042116101305780634113f0421461023a5780635bc6cfd11461026a578063715018a6146102865780637612f53c1461029057806376159b68146102c05780637d8f60a4146102f057610173565b806320eb640c1461017857806324d7806c146101825780632daceebc146101b25780632e4d44ea146101e257806336012d4414610212578063372500ab14610230575b600080fd5b61018061048a565b005b61019c60048036038101906101979190611432565b6106fb565b6040516101a99190611478565b60405180910390f35b6101cc60048036038101906101c79190611432565b610713565b6040516101d99190611478565b60405180910390f35b6101fc60048036038101906101f79190611432565b61072b565b6040516102099190611478565b60405180910390f35b61021a61080a565b6040516102279190611478565b60405180910390f35b610238610810565b005b610254600480360381019061024f9190611432565b610967565b6040516102619190611478565b60405180910390f35b610284600480360381019061027f91906114bf565b61097f565b005b61028e6109d5565b005b6102aa60048036038101906102a59190611432565b6109e9565b6040516102b79190611478565b60405180910390f35b6102da60048036038101906102d591906114bf565b610a32565b6040516102e79190611478565b60405180910390f35b6102f8610ac8565b6040516103059190611478565b60405180910390f35b610316610ace565b6040516103239190611478565b60405180910390f35b610334610ad8565b60405161034191906114fb565b60405180910390f35b610352610b01565b60405161035f9190611575565b60405180910390f35b610382600480360381019061037d9190611432565b610b27565b60405161038f9190611478565b60405180910390f35b6103a0610b3f565b6040516103ad9190611478565b60405180910390f35b6103d060048036038101906103cb91906114bf565b610b49565b005b6103da610bc9565b6040516103e79190611478565b60405180910390f35b61040a600480360381019061040591906114bf565b610bcf565b005b610426600480360381019061042191906114bf565b610cc1565b005b61043061100e565b005b61043a61119e565b6040516104479190611478565b60405180910390f35b6104586111a4565b6040516104659190611478565b60405180910390f35b61048860048036038101906104839190611432565b6111aa565b005b61049261122d565b6001600354146104a157600080fd5b6000600860003373ffffffffffffffffffffffffffffffffffffffff1673ffffffffffffffffffffffffffffffffffffffff1681526020019081526020016000205411610523576040517f08c379a000000000000000000000000000000000000000000000000000000000815260040161051a906115ed565b60405180910390fd5b6000600860003373ffffffffffffffffffffffffffffffffffffffff1673ffffffffffffffffffffffffffffffffffffffff16815260200190815260200160002054905060006105723361072b565b90506000600860003373ffffffffffffffffffffffffffffffffffffffff1673ffffffffffffffffffffffffffffffffffffffff168152602001908152602001600020819055506000600a60003373ffffffffffffffffffffffffffffffffffffffff1673ffffffffffffffffffffffffffffffffffffffff168152602001908152602001600020819055506000600960003373ffffffffffffffffffffffffffffffffffffffff1673ffffffffffffffffffffffffffffffffffffffff16815260200190815260200160002081905550600260009054906101000a900473ffffffffffffffffffffffffffffffffffffffff1673ffffffffffffffffffffffffffffffffffffffff1663a9059cbb33838561068e919061163c565b6040518363ffffffff1660e01b81526004016106ab929190611670565b6020604051808303816000875af11580156106ca573d6000803e3d6000fd5b505050506040513d601f19601f820116820180604052508101906106ee91906116d1565b5050506106f961127c565b565b600b6020528060005260406000206000915090505481565b60096020528060005260406000206000915090505481565b600080600960008473ffffffffffffffffffffffffffffffffffffffff1673ffffffffffffffffffffffffffffffffffffffff168152602001908152602001600020544261077991906116fe565b905060006007548261078b9190611761565b905060008160055461079d9190611792565b9050600064e8d4a51000600860008873ffffffffffffffffffffffffffffffffffffffff1673ffffffffffffffffffffffffffffffffffffffff16815260200190815260200160002054836107f29190611792565b6107fc9190611761565b905080945050505050919050565b60075481565b61081861122d565b60016003541461082757600080fd5b60006108323361072b565b905060008111610877576040517f08c379a000000000000000000000000000000000000000000000000000000000815260040161086e90611820565b60405180910390fd5b600260009054906101000a900473ffffffffffffffffffffffffffffffffffffffff1673ffffffffffffffffffffffffffffffffffffffff1663a9059cbb33836040518363ffffffff1660e01b81526004016108d4929190611670565b6020604051808303816000875af11580156108f3573d6000803e3d6000fd5b505050506040513d601f19601f8201168201806040525081019061091791906116d1565b5042600960003373ffffffffffffffffffffffffffffffffffffffff1673ffffffffffffffffffffffffffffffffffffffff168152602001908152602001600020819055505061096561127c565b565b60086020528060005260406000206000915090505481565b6001600b60003373ffffffffffffffffffffffffffffffffffffffff1673ffffffffffffffffffffffffffffffffffffffff16815260200190815260200160002054146109cb57600080fd5b8060038190555050565b6109dd611285565b6109e76000611303565b565b6000600860008373ffffffffffffffffffffffffffffffffffffffff1673ffffffffffffffffffffffffffffffffffffffff168152602001908152602001600020549050919050565b60006001600b60003373ffffffffffffffffffffffffffffffffffffffff1673ffffffffffffffffffffffffffffffffffffffff1681526020019081526020016000205414610a8057600080fd5b61016d82610a8e9190611761565b600681905550600062015180600754610aa79190611761565b600654610ab49190611792565b905080600581905550600554915050919050565b60055481565b6000600354905090565b60008060009054906101000a900473ffffffffffffffffffffffffffffffffffffffff16905090565b600260009054906101000a900473ffffffffffffffffffffffffffffffffffffffff1681565b600a6020528060005260406000206000915090505481565b6000600754905090565b6001600b60003373ffffffffffffffffffffffffffffffffffffffff1673ffffffffffffffffffffffffffffffffffffffff1681526020019081526020016000205414610b9557600080fd5b80600781905550600062015180600754610baf9190611761565b600654610bbc9190611792565b9050806005819055505050565b60045481565b6001600b60003373ffffffffffffffffffffffffffffffffffffffff1673ffffffffffffffffffffffffffffffffffffffff1681526020019081526020016000205414610c1b57600080fd5b600260009054906101000a900473ffffffffffffffffffffffffffffffffffffffff1673ffffffffffffffffffffffffffffffffffffffff166323b872dd3330846040518463ffffffff1660e01b8152600401610c7a93929190611840565b6020604051808303816000875af1158015610c99573d6000803e3d6000fd5b505050506040513d601f19601f82011682018060405250810190610cbd91906116d1565b5050565b610cc961122d565b600160035414610cd857600080fd5b6000600260009054906101000a900473ffffffffffffffffffffffffffffffffffffffff1673ffffffffffffffffffffffffffffffffffffffff166370a08231306040518263ffffffff1660e01b8152600401610d3591906114fb565b602060405180830381865afa158015610d52573d6000803e3d6000fd5b505050506040513d601f19601f82011682018060405250810190610d76919061188c565b9050600454811115610dbd576040517f08c379a0000000000000000000000000000000000000000000000000000000008152600401610db490611905565b60405180910390fd5b60008211610e00576040517f08c379a0000000000000000000000000000000000000000000000000000000008152600401610df790611971565b60405180910390fd5b6000600a60003373ffffffffffffffffffffffffffffffffffffffff1673ffffffffffffffffffffffffffffffffffffffff1681526020019081526020016000205403610ed1576001600a60003373ffffffffffffffffffffffffffffffffffffffff1673ffffffffffffffffffffffffffffffffffffffff1681526020019081526020016000208190555042600960003373ffffffffffffffffffffffffffffffffffffffff1673ffffffffffffffffffffffffffffffffffffffff168152602001908152602001600020819055505b81600860003373ffffffffffffffffffffffffffffffffffffffff1673ffffffffffffffffffffffffffffffffffffffff16815260200190815260200160002054610f1c919061163c565b600860003373ffffffffffffffffffffffffffffffffffffffff1673ffffffffffffffffffffffffffffffffffffffff16815260200190815260200160002081905550600260009054906101000a900473ffffffffffffffffffffffffffffffffffffffff1673ffffffffffffffffffffffffffffffffffffffff166323b872dd3330856040518463ffffffff1660e01b8152600401610fbe93929190611840565b6020604051808303816000875af1158015610fdd573d6000803e3d6000fd5b505050506040513d601f19601f8201168201806040525081019061100191906116d1565b505061100b61127c565b50565b6001600b60003373ffffffffffffffffffffffffffffffffffffffff1673ffffffffffffffffffffffffffffffffffffffff168152602001908152602001600020541461105a57600080fd5b6000600260009054906101000a900473ffffffffffffffffffffffffffffffffffffffff1673ffffffffffffffffffffffffffffffffffffffff166370a08231306040518263ffffffff1660e01b81526004016110b791906114fb565b602060405180830381865afa1580156110d4573d6000803e3d6000fd5b505050506040513d601f19601f820116820180604052508101906110f8919061188c565b9050600260009054906101000a900473ffffffffffffffffffffffffffffffffffffffff1673ffffffffffffffffffffffffffffffffffffffff1663a9059cbb33836040518363ffffffff1660e01b8152600401611157929190611670565b6020604051808303816000875af1158015611176573d6000803e3d6000fd5b505050506040513d601f19601f8201168201806040525081019061119a91906116d1565b5050565b60035481565b60065481565b6111b2611285565b600073ffffffffffffffffffffffffffffffffffffffff168173ffffffffffffffffffffffffffffffffffffffff1603611221576040517f08c379a000000000000000000000000000000000000000000000000000000000815260040161121890611a03565b60405180910390fd5b61122a81611303565b50565b600260015403611272576040517f08c379a000000000000000000000000000000000000000000000000000000000815260040161126990611a6f565b60405180910390fd5b6002600181905550565b60018081905550565b61128d6113c7565b73ffffffffffffffffffffffffffffffffffffffff166112ab610ad8565b73ffffffffffffffffffffffffffffffffffffffff1614611301576040517f08c379a00000000000000000000000000000000000000000000000000000000081526004016112f890611adb565b60405180910390fd5b565b60008060009054906101000a900473ffffffffffffffffffffffffffffffffffffffff169050816000806101000a81548173ffffffffffffffffffffffffffffffffffffffff021916908373ffffffffffffffffffffffffffffffffffffffff1602179055508173ffffffffffffffffffffffffffffffffffffffff168173ffffffffffffffffffffffffffffffffffffffff167f8be0079c531659141344cd1fd0a4f28419497f9722a3daafe3b4186f6b6457e060405160405180910390a35050565b600033905090565b600080fd5b600073ffffffffffffffffffffffffffffffffffffffff82169050919050565b60006113ff826113d4565b9050919050565b61140f816113f4565b811461141a57600080fd5b50565b60008135905061142c81611406565b92915050565b600060208284031215611448576114476113cf565b5b60006114568482850161141d565b91505092915050565b6000819050919050565b6114728161145f565b82525050565b600060208201905061148d6000830184611469565b92915050565b61149c8161145f565b81146114a757600080fd5b50565b6000813590506114b981611493565b92915050565b6000602082840312156114d5576114d46113cf565b5b60006114e3848285016114aa565b91505092915050565b6114f5816113f4565b82525050565b600060208201905061151060008301846114ec565b92915050565b6000819050919050565b600061153b611536611531846113d4565b611516565b6113d4565b9050919050565b600061154d82611520565b9050919050565b600061155f82611542565b9050919050565b61156f81611554565b82525050565b600060208201905061158a6000830184611566565b92915050565b600082825260208201905092915050565b7f6e6f207374616b656420746f6b656e0000000000000000000000000000000000600082015250565b60006115d7600f83611590565b91506115e2826115a1565b602082019050919050565b60006020820190508181036000830152611606816115ca565b9050919050565b7f4e487b7100000000000000000000000000000000000000000000000000000000600052601160045260246000fd5b60006116478261145f565b91506116528361145f565b925082820190508082111561166a5761166961160d565b5b92915050565b600060408201905061168560008301856114ec565b6116926020830184611469565b9392505050565b60008115159050919050565b6116ae81611699565b81146116b957600080fd5b50565b6000815190506116cb816116a5565b92915050565b6000602082840312156116e7576116e66113cf565b5b60006116f5848285016116bc565b91505092915050565b60006117098261145f565b91506117148361145f565b925082820390508181111561172c5761172b61160d565b5b92915050565b7f4e487b7100000000000000000000000000000000000000000000000000000000600052601260045260246000fd5b600061176c8261145f565b91506117778361145f565b92508261178757611786611732565b5b828204905092915050565b600061179d8261145f565b91506117a88361145f565b92508282026117b68161145f565b915082820484148315176117cd576117cc61160d565b5b5092915050565b7f5468657265206973206e6f7468696e6720746f20636c61696d21000000000000600082015250565b600061180a601a83611590565b9150611815826117d4565b602082019050919050565b60006020820190508181036000830152611839816117fd565b9050919050565b600060608201905061185560008301866114ec565b61186260208301856114ec565b61186f6040830184611469565b949350505050565b60008151905061188681611493565b92915050565b6000602082840312156118a2576118a16113cf565b5b60006118b084828501611877565b91505092915050565b7f506f6f6c206174206d6178206361706163697479210000000000000000000000600082015250565b60006118ef601583611590565b91506118fa826118b9565b602082019050919050565b6000602082019050818103600083015261191e816118e2565b9050919050565b7f416d6f756e742063616e6e6f74206265207a65726f0000000000000000000000600082015250565b600061195b601583611590565b915061196682611925565b602082019050919050565b6000602082019050818103600083015261198a8161194e565b9050919050565b7f4f776e61626c653a206e6577206f776e657220697320746865207a65726f206160008201527f6464726573730000000000000000000000000000000000000000000000000000602082015250565b60006119ed602683611590565b91506119f882611991565b604082019050919050565b60006020820190508181036000830152611a1c816119e0565b9050919050565b7f5265656e7472616e637947756172643a207265656e7472616e742063616c6c00600082015250565b6000611a59601f83611590565b9150611a6482611a23565b602082019050919050565b60006020820190508181036000830152611a8881611a4c565b9050919050565b7f4f776e61626c653a2063616c6c6572206973206e6f7420746865206f776e6572600082015250565b6000611ac5602083611590565b9150611ad082611a8f565b602082019050919050565b60006020820190508181036000830152611af481611ab8565b905091905056fea26469706673582212205d24061310a78a5d4c718a2b079949b8f8601986b91afd30154218ee23ed811864736f6c63430008110033",
  "immutableReferences": {},
  "source": "// SPDX-License-Identifier: MIT\npragma solidity ^0.8.15;\n\nimport \"@openzeppelin/contracts/access/Ownable.sol\";\nimport \"@openzeppelin/contracts/token/ERC20/IERC20.sol\";\nimport \"@openzeppelin/contracts/security/ReentrancyGuard.sol\";\n\ncontract TwinStaking is Ownable, ReentrancyGuard {\n\n   IERC20 public twinToken;\n\n   uint public poolStatus;  // 0 - Close / 1 - Open\n   uint public maxTwinInPool;\n   uint public percentageRate;  // percentage in maturity period   // represented in 1e10\n   uint public percentPerDay;\n   uint public maturityPeriod;  // Period in seconds\n\n   mapping(address => uint) public userToStakeAmount;\n   mapping(address => uint) public userToStakeStart;\n   mapping(address => uint) public userHasStaked;  // 0 - False / 1 - true;\n   mapping(address => uint) public isAdmin; // 0 -False / 1 - true;\n\n\n   constructor(address _twinToken, address _admin) {\n        twinToken = IERC20(_twinToken);\n        maxTwinInPool = 1000000 * 1e18;\n        poolStatus = 1;\n        isAdmin[_admin] = 1;\n        maturityPeriod =  2592000;// 30 days in seconds\n        percentageRate = 500000000000; // \n        percentPerDay = 1369863013;\n\n   }\n\n   function changePoolStatus(uint _status) public {\n      require(isAdmin[msg.sender] == 1);\n      poolStatus = _status;\n   }   \n\n   function changeAPY(uint _apy) public returns(uint)  { // 1e10\n      require(isAdmin[msg.sender] == 1);\n      percentPerDay = _apy / 365;\n      uint ratePerMaturity = percentPerDay * (maturityPeriod / 86400);\n      percentageRate = ratePerMaturity;\n\n      return percentageRate;\n   \n   }\n\n\n   function changeMaturityPeriod(uint _period) public { // represented in seconds\n      require(isAdmin[msg.sender] == 1);\n      maturityPeriod = _period;\n      uint ratePerMaturity = percentPerDay * (maturityPeriod / 86400);\n      percentageRate = ratePerMaturity;\n\n   }\n\n   function depositTwin(uint _amount) public  {\n        require(isAdmin[msg.sender] == 1);\n        twinToken.transferFrom(msg.sender, address(this), _amount);\n   }\n\n   function withdrawTwin() public  {  \n        require(isAdmin[msg.sender] == 1);\n        uint twinBalance = twinToken.balanceOf(address(this));\n        twinToken.transfer(msg.sender, twinBalance);\n   }\n\n   function stakeToken(uint _amount) public nonReentrant {\n       require(poolStatus == 1);\n       uint balance = twinToken.balanceOf(address(this));\n       require(balance <= maxTwinInPool, \"Pool at max capacity!\");\n       require(_amount > 0, \"Amount cannot be zero\");\n       \n       if(userHasStaked[msg.sender] == 0) {\n          userHasStaked[msg.sender] = 1;\n          userToStakeStart[msg.sender] = block.timestamp;\n       }\n\n       userToStakeAmount[msg.sender] = userToStakeAmount[msg.sender] + _amount;\n       \n       twinToken.transferFrom(msg.sender, address(this), _amount);\n       \n   }\n\n   function unstakeToken() public nonReentrant {\n       require(poolStatus == 1);\n       require(userToStakeAmount[msg.sender] > 0, \"no staked token\");\n       uint stakedAmount = userToStakeAmount[msg.sender];\n       uint resedualRewards = checkRewardCycle(msg.sender);\n       userToStakeAmount[msg.sender] = 0;\n       userHasStaked[msg.sender] = 0;\n       userToStakeStart[msg.sender] = 0;\n       twinToken.transfer(msg.sender, (stakedAmount + resedualRewards));\n   }\n\n   function claimRewards() public nonReentrant {\n      require(poolStatus == 1);\n      uint reward = checkRewardCycle(msg.sender);\n      require(reward > 0, \"There is nothing to claim!\");\n\n      twinToken.transfer(msg.sender, reward);\n \n      userToStakeStart[msg.sender] = block.timestamp;  //reset stake time after claim rewards\n\n   }\n\n   function checkRewardCycle(address _user) public view returns(uint) {\n      uint timeDifference = block.timestamp - userToStakeStart[_user]; // timeDifference in seconds \n    \n      uint userRewardCycle = timeDifference / maturityPeriod;    \n\n      uint userRewardPoints = (percentageRate * userRewardCycle);  \n\n      uint userReward = (userRewardPoints * userToStakeAmount[_user]) / 1e12;  \n      return userReward;\n \n      \n   }\n\n   function getPoolStatus() public view returns(uint) {\n      return poolStatus;\n   }\n\n   function getUserStakeAmount(address _user) public view returns(uint) {\n      return userToStakeAmount[_user];\n   }\n\n   function getMaturityPeriod() public view returns(uint) {\n      return maturityPeriod;\n   }\n\n\n\n\n\n}",
  "sourcePath": "/Users/cobra/Desktop/twinstaking/contracts/TwinStaking.sol",
  "compiler": {
    "name": "solc",
    "version": "0.8.17+commit.8df45f5f.Emscripten.clang"
  },
  "schemaVersion": "3.4.11",
  "updatedAt": "2023-02-19T02:53:10.388Z",
  "devdoc": {
    "kind": "dev",
    "methods": {
      "owner()": {
        "details": "Returns the address of the current owner."
      },
      "renounceOwnership()": {
        "details": "Leaves the contract without owner. It will not be possible to call `onlyOwner` functions anymore. Can only be called by the current owner. NOTE: Renouncing ownership will leave the contract without an owner, thereby removing any functionality that is only available to the owner."
      },
      "transferOwnership(address)": {
        "details": "Transfers ownership of the contract to a new account (`newOwner`). Can only be called by the current owner."
      }
    },
    "version": 1
  },
  "userdoc": {
    "kind": "user",
    "methods": {},
    "version": 1
  }
}