{
  "contractName": "TwinStaking",
  "abi": [
    {
      "inputs": [
        {
          "internalType": "address",
          "name": "_twinToken",
          "type": "address"
        },
        {
          "internalType": "address",
          "name": "_admin",
          "type": "address"
        }
      ],
      "stateMutability": "nonpayable",
      "type": "constructor"
    },
    {
      "anonymous": false,
      "inputs": [
        {
          "indexed": true,
          "internalType": "address",
          "name": "previousOwner",
          "type": "address"
        },
        {
          "indexed": true,
          "internalType": "address",
          "name": "newOwner",
          "type": "address"
        }
      ],
      "name": "OwnershipTransferred",
      "type": "event"
    },
    {
      "inputs": [
        {
          "internalType": "address",
          "name": "",
          "type": "address"
        }
      ],
      "name": "isAdmin",
      "outputs": [
        {
          "internalType": "uint256",
          "name": "",
          "type": "uint256"
        }
      ],
      "stateMutability": "view",
      "type": "function"
    },
    {
      "inputs": [],
      "name": "maturityPeriod",
      "outputs": [
        {
          "internalType": "uint256",
          "name": "",
          "type": "uint256"
        }
      ],
      "stateMutability": "view",
      "type": "function"
    },
    {
      "inputs": [],
      "name": "maxTwinInPool",
      "outputs": [
        {
          "internalType": "uint256",
          "name": "",
          "type": "uint256"
        }
      ],
      "stateMutability": "view",
      "type": "function"
    },
    {
      "inputs": [],
      "name": "owner",
      "outputs": [
        {
          "internalType": "address",
          "name": "",
          "type": "address"
        }
      ],
      "stateMutability": "view",
      "type": "function"
    },
    {
      "inputs": [],
      "name": "percentPerDay",
      "outputs": [
        {
          "internalType": "uint256",
          "name": "",
          "type": "uint256"
        }
      ],
      "stateMutability": "view",
      "type": "function"
    },
    {
      "inputs": [],
      "name": "percentageRate",
      "outputs": [
        {
          "internalType": "uint256",
          "name": "",
          "type": "uint256"
        }
      ],
      "stateMutability": "view",
      "type": "function"
    },
    {
      "inputs": [],
      "name": "poolStatus",
      "outputs": [
        {
          "internalType": "uint256",
          "name": "",
          "type": "uint256"
        }
      ],
      "stateMutability": "view",
      "type": "function"
    },
    {
      "inputs": [],
      "name": "renounceOwnership",
      "outputs": [],
      "stateMutability": "nonpayable",
      "type": "function"
    },
    {
      "inputs": [],
      "name": "totalStakedAmount",
      "outputs": [
        {
          "internalType": "uint256",
          "name": "",
          "type": "uint256"
        }
      ],
      "stateMutability": "view",
      "type": "function"
    },
    {
      "inputs": [
        {
          "internalType": "address",
          "name": "newOwner",
          "type": "address"
        }
      ],
      "name": "transferOwnership",
      "outputs": [],
      "stateMutability": "nonpayable",
      "type": "function"
    },
    {
      "inputs": [],
      "name": "twinToken",
      "outputs": [
        {
          "internalType": "contract IERC20",
          "name": "",
          "type": "address"
        }
      ],
      "stateMutability": "view",
      "type": "function"
    },
    {
      "inputs": [
        {
          "internalType": "address",
          "name": "",
          "type": "address"
        }
      ],
      "name": "userHasStaked",
      "outputs": [
        {
          "internalType": "uint256",
          "name": "",
          "type": "uint256"
        }
      ],
      "stateMutability": "view",
      "type": "function"
    },
    {
      "inputs": [
        {
          "internalType": "address",
          "name": "",
          "type": "address"
        }
      ],
      "name": "userToStakeAmount",
      "outputs": [
        {
          "internalType": "uint256",
          "name": "",
          "type": "uint256"
        }
      ],
      "stateMutability": "view",
      "type": "function"
    },
    {
      "inputs": [
        {
          "internalType": "address",
          "name": "",
          "type": "address"
        }
      ],
      "name": "userToStakeStart",
      "outputs": [
        {
          "internalType": "uint256",
          "name": "",
          "type": "uint256"
        }
      ],
      "stateMutability": "view",
      "type": "function"
    },
    {
      "inputs": [
        {
          "internalType": "uint256",
          "name": "_status",
          "type": "uint256"
        }
      ],
      "name": "changePoolStatus",
      "outputs": [],
      "stateMutability": "nonpayable",
      "type": "function"
    },
    {
      "inputs": [
        {
          "internalType": "uint256",
          "name": "_apy",
          "type": "uint256"
        }
      ],
      "name": "changeAPY",
      "outputs": [
        {
          "internalType": "uint256",
          "name": "",
          "type": "uint256"
        }
      ],
      "stateMutability": "nonpayable",
      "type": "function"
    },
    {
      "inputs": [
        {
          "internalType": "uint256",
          "name": "_period",
          "type": "uint256"
        }
      ],
      "name": "changeMaturityPeriod",
      "outputs": [],
      "stateMutability": "nonpayable",
      "type": "function"
    },
    {
      "inputs": [
        {
          "internalType": "uint256",
          "name": "_amount",
          "type": "uint256"
        }
      ],
      "name": "depositTwin",
      "outputs": [],
      "stateMutability": "nonpayable",
      "type": "function"
    },
    {
      "inputs": [],
      "name": "withdrawTwin",
      "outputs": [],
      "stateMutability": "nonpayable",
      "type": "function"
    },
    {
      "inputs": [
        {
          "internalType": "uint256",
          "name": "_amount",
          "type": "uint256"
        }
      ],
      "name": "stakeToken",
      "outputs": [],
      "stateMutability": "nonpayable",
      "type": "function"
    },
    {
      "inputs": [],
      "name": "unstakeToken",
      "outputs": [],
      "stateMutability": "nonpayable",
      "type": "function"
    },
    {
      "inputs": [],
      "name": "claimRewards",
      "outputs": [],
      "stateMutability": "nonpayable",
      "type": "function"
    },
    {
      "inputs": [
        {
          "internalType": "address",
          "name": "_user",
          "type": "address"
        }
      ],
      "name": "checkRewardCycle",
      "outputs": [
        {
          "internalType": "uint256",
          "name": "",
          "type": "uint256"
        }
      ],
      "stateMutability": "view",
      "type": "function"
    },
    {
      "inputs": [],
      "name": "getPoolStatus",
      "outputs": [
        {
          "internalType": "uint256",
          "name": "",
          "type": "uint256"
        }
      ],
      "stateMutability": "view",
      "type": "function"
    },
    {
      "inputs": [
        {
          "internalType": "address",
          "name": "_user",
          "type": "address"
        }
      ],
      "name": "getUserStakeAmount",
      "outputs": [
        {
          "internalType": "uint256",
          "name": "",
          "type": "uint256"
        }
      ],
      "stateMutability": "view",
      "type": "function"
    },
    {
      "inputs": [],
      "name": "getMaturityPeriod",
      "outputs": [
        {
          "internalType": "uint256",
          "name": "",
          "type": "uint256"
        }
      ],
      "stateMutability": "view",
      "type": "function"
    },
    {
      "inputs": [],
      "name": "getTotalStakedinPool",
      "outputs": [
        {
          "internalType": "uint256",
          "name": "",
          "type": "uint256"
        }
      ],
      "stateMutability": "view",
      "type": "function"
    }
  ],
  "bytecode": "0x60806040523480156200001157600080fd5b5060405162001e8e38038062001e8e83398181016040528101906200003791906200025c565b620000576200004b6200012660201b60201c565b6200012e60201b60201c565b6001808190555081600260006101000a81548173ffffffffffffffffffffffffffffffffffffffff021916908373ffffffffffffffffffffffffffffffffffffffff16021790555069d3c21bcecceda100000060048190555060016003819055506001600c60008373ffffffffffffffffffffffffffffffffffffffff1673ffffffffffffffffffffffffffffffffffffffff1681526020019081526020016000208190555062278d0060078190555064746a5288006005819055506351a673656006819055505050620002a3565b600033905090565b60008060009054906101000a900473ffffffffffffffffffffffffffffffffffffffff169050816000806101000a81548173ffffffffffffffffffffffffffffffffffffffff021916908373ffffffffffffffffffffffffffffffffffffffff1602179055508173ffffffffffffffffffffffffffffffffffffffff168173ffffffffffffffffffffffffffffffffffffffff167f8be0079c531659141344cd1fd0a4f28419497f9722a3daafe3b4186f6b6457e060405160405180910390a35050565b600080fd5b600073ffffffffffffffffffffffffffffffffffffffff82169050919050565b60006200022482620001f7565b9050919050565b620002368162000217565b81146200024257600080fd5b50565b60008151905062000256816200022b565b92915050565b60008060408385031215620002765762000275620001f2565b5b6000620002868582860162000245565b9250506020620002998582860162000245565b9150509250929050565b611bdb80620002b36000396000f3fe608060405234801561001057600080fd5b50600436106101a95760003560e01c80637d8f60a4116100f9578063bebaa75b11610097578063e134ddd111610071578063e134ddd11461049a578063f0228692146104a4578063f036af92146104c2578063f2fde38b146104e0576101a9565b8063bebaa75b14610444578063cafafef514610462578063cda6b8471461047e576101a9565b80638f6ad7bc116100d35780638f6ad7bc146103bc578063a3d2039c146103da578063a909d8781461040a578063b248ff3914610428576101a9565b80637d8f60a4146103625780637f79496c146103805780638da5cb5b1461039e576101a9565b80634113f04211610166578063715018a611610140578063715018a6146102da5780637612f53c146102e457806376159b68146103145780637d54e6ef14610344576101a9565b80634113f04214610270578063567e98f9146102a05780635bc6cfd1146102be576101a9565b806320eb640c146101ae57806324d7806c146101b85780632daceebc146101e85780632e4d44ea1461021857806336012d4414610248578063372500ab14610266575b600080fd5b6101b66104fc565b005b6101d260048036038101906101cd91906114dc565b610781565b6040516101df9190611522565b60405180910390f35b61020260048036038101906101fd91906114dc565b610799565b60405161020f9190611522565b60405180910390f35b610232600480360381019061022d91906114dc565b6107b1565b60405161023f9190611522565b60405180910390f35b610250610890565b60405161025d9190611522565b60405180910390f35b61026e610896565b005b61028a600480360381019061028591906114dc565b6109ed565b6040516102979190611522565b60405180910390f35b6102a8610a05565b6040516102b59190611522565b60405180910390f35b6102d860048036038101906102d39190611569565b610a0b565b005b6102e2610a61565b005b6102fe60048036038101906102f991906114dc565b610a75565b60405161030b9190611522565b60405180910390f35b61032e60048036038101906103299190611569565b610abe565b60405161033b9190611522565b60405180910390f35b61034c610b54565b6040516103599190611522565b60405180910390f35b61036a610b5e565b6040516103779190611522565b60405180910390f35b610388610b64565b6040516103959190611522565b60405180910390f35b6103a6610b6e565b6040516103b391906115a5565b60405180910390f35b6103c4610b97565b6040516103d1919061161f565b60405180910390f35b6103f460048036038101906103ef91906114dc565b610bbd565b6040516104019190611522565b60405180910390f35b610412610bd5565b60405161041f9190611522565b60405180910390f35b610442600480360381019061043d9190611569565b610bdf565b005b61044c610c5f565b6040516104599190611522565b60405180910390f35b61047c60048036038101906104779190611569565b610c65565b005b61049860048036038101906104939190611569565b610d57565b005b6104a26110b8565b005b6104ac611248565b6040516104b99190611522565b60405180910390f35b6104ca61124e565b6040516104d79190611522565b60405180910390f35b6104fa60048036038101906104f591906114dc565b611254565b005b6105046112d7565b60016003541461051357600080fd5b6000600960003373ffffffffffffffffffffffffffffffffffffffff1673ffffffffffffffffffffffffffffffffffffffff1681526020019081526020016000205411610595576040517f08c379a000000000000000000000000000000000000000000000000000000000815260040161058c90611697565b60405180910390fd5b6000600960003373ffffffffffffffffffffffffffffffffffffffff1673ffffffffffffffffffffffffffffffffffffffff16815260200190815260200160002054905060006105e4336107b1565b90506000600960003373ffffffffffffffffffffffffffffffffffffffff1673ffffffffffffffffffffffffffffffffffffffff168152602001908152602001600020819055506000600b60003373ffffffffffffffffffffffffffffffffffffffff1673ffffffffffffffffffffffffffffffffffffffff168152602001908152602001600020819055506000600a60003373ffffffffffffffffffffffffffffffffffffffff1673ffffffffffffffffffffffffffffffffffffffff16815260200190815260200160002081905550816008546106c391906116e6565b600881905550600260009054906101000a900473ffffffffffffffffffffffffffffffffffffffff1673ffffffffffffffffffffffffffffffffffffffff1663a9059cbb338385610714919061171a565b6040518363ffffffff1660e01b815260040161073192919061174e565b6020604051808303816000875af1158015610750573d6000803e3d6000fd5b505050506040513d601f19601f8201168201806040525081019061077491906117af565b50505061077f611326565b565b600c6020528060005260406000206000915090505481565b600a6020528060005260406000206000915090505481565b600080600a60008473ffffffffffffffffffffffffffffffffffffffff1673ffffffffffffffffffffffffffffffffffffffff16815260200190815260200160002054426107ff91906116e6565b9050600060075482610811919061180b565b9050600081600554610823919061183c565b9050600064e8d4a51000600960008873ffffffffffffffffffffffffffffffffffffffff1673ffffffffffffffffffffffffffffffffffffffff1681526020019081526020016000205483610878919061183c565b610882919061180b565b905080945050505050919050565b60075481565b61089e6112d7565b6001600354146108ad57600080fd5b60006108b8336107b1565b9050600081116108fd576040517f08c379a00000000000000000000000000000000000000000000000000000000081526004016108f4906118ca565b60405180910390fd5b600260009054906101000a900473ffffffffffffffffffffffffffffffffffffffff1673ffffffffffffffffffffffffffffffffffffffff1663a9059cbb33836040518363ffffffff1660e01b815260040161095a92919061174e565b6020604051808303816000875af1158015610979573d6000803e3d6000fd5b505050506040513d601f19601f8201168201806040525081019061099d91906117af565b5042600a60003373ffffffffffffffffffffffffffffffffffffffff1673ffffffffffffffffffffffffffffffffffffffff16815260200190815260200160002081905550506109eb611326565b565b60096020528060005260406000206000915090505481565b60085481565b6001600c60003373ffffffffffffffffffffffffffffffffffffffff1673ffffffffffffffffffffffffffffffffffffffff1681526020019081526020016000205414610a5757600080fd5b8060038190555050565b610a6961132f565b610a7360006113ad565b565b6000600960008373ffffffffffffffffffffffffffffffffffffffff1673ffffffffffffffffffffffffffffffffffffffff168152602001908152602001600020549050919050565b60006001600c60003373ffffffffffffffffffffffffffffffffffffffff1673ffffffffffffffffffffffffffffffffffffffff1681526020019081526020016000205414610b0c57600080fd5b61016d82610b1a919061180b565b600681905550600062015180600754610b33919061180b565b600654610b40919061183c565b905080600581905550600554915050919050565b6000600854905090565b60055481565b6000600354905090565b60008060009054906101000a900473ffffffffffffffffffffffffffffffffffffffff16905090565b600260009054906101000a900473ffffffffffffffffffffffffffffffffffffffff1681565b600b6020528060005260406000206000915090505481565b6000600754905090565b6001600c60003373ffffffffffffffffffffffffffffffffffffffff1673ffffffffffffffffffffffffffffffffffffffff1681526020019081526020016000205414610c2b57600080fd5b80600781905550600062015180600754610c45919061180b565b600654610c52919061183c565b9050806005819055505050565b60045481565b6001600c60003373ffffffffffffffffffffffffffffffffffffffff1673ffffffffffffffffffffffffffffffffffffffff1681526020019081526020016000205414610cb157600080fd5b600260009054906101000a900473ffffffffffffffffffffffffffffffffffffffff1673ffffffffffffffffffffffffffffffffffffffff166323b872dd3330846040518463ffffffff1660e01b8152600401610d10939291906118ea565b6020604051808303816000875af1158015610d2f573d6000803e3d6000fd5b505050506040513d601f19601f82011682018060405250810190610d5391906117af565b5050565b610d5f6112d7565b600160035414610d6e57600080fd5b6000600260009054906101000a900473ffffffffffffffffffffffffffffffffffffffff1673ffffffffffffffffffffffffffffffffffffffff166370a08231306040518263ffffffff1660e01b8152600401610dcb91906115a5565b602060405180830381865afa158015610de8573d6000803e3d6000fd5b505050506040513d601f19601f82011682018060405250810190610e0c9190611936565b9050600454811115610e53576040517f08c379a0000000000000000000000000000000000000000000000000000000008152600401610e4a906119af565b60405180910390fd5b60008211610e96576040517f08c379a0000000000000000000000000000000000000000000000000000000008152600401610e8d90611a1b565b60405180910390fd5b6000600b60003373ffffffffffffffffffffffffffffffffffffffff1673ffffffffffffffffffffffffffffffffffffffff1681526020019081526020016000205403610f67576001600b60003373ffffffffffffffffffffffffffffffffffffffff1673ffffffffffffffffffffffffffffffffffffffff1681526020019081526020016000208190555042600a60003373ffffffffffffffffffffffffffffffffffffffff1673ffffffffffffffffffffffffffffffffffffffff168152602001908152602001600020819055505b81600960003373ffffffffffffffffffffffffffffffffffffffff1673ffffffffffffffffffffffffffffffffffffffff16815260200190815260200160002054610fb2919061171a565b600960003373ffffffffffffffffffffffffffffffffffffffff1673ffffffffffffffffffffffffffffffffffffffff1681526020019081526020016000208190555081600854611003919061171a565b600881905550600260009054906101000a900473ffffffffffffffffffffffffffffffffffffffff1673ffffffffffffffffffffffffffffffffffffffff166323b872dd3330856040518463ffffffff1660e01b8152600401611068939291906118ea565b6020604051808303816000875af1158015611087573d6000803e3d6000fd5b505050506040513d601f19601f820116820180604052508101906110ab91906117af565b50506110b5611326565b50565b6001600c60003373ffffffffffffffffffffffffffffffffffffffff1673ffffffffffffffffffffffffffffffffffffffff168152602001908152602001600020541461110457600080fd5b6000600260009054906101000a900473ffffffffffffffffffffffffffffffffffffffff1673ffffffffffffffffffffffffffffffffffffffff166370a08231306040518263ffffffff1660e01b815260040161116191906115a5565b602060405180830381865afa15801561117e573d6000803e3d6000fd5b505050506040513d601f19601f820116820180604052508101906111a29190611936565b9050600260009054906101000a900473ffffffffffffffffffffffffffffffffffffffff1673ffffffffffffffffffffffffffffffffffffffff1663a9059cbb33836040518363ffffffff1660e01b815260040161120192919061174e565b6020604051808303816000875af1158015611220573d6000803e3d6000fd5b505050506040513d601f19601f8201168201806040525081019061124491906117af565b5050565b60035481565b60065481565b61125c61132f565b600073ffffffffffffffffffffffffffffffffffffffff168173ffffffffffffffffffffffffffffffffffffffff16036112cb576040517f08c379a00000000000000000000000000000000000000000000000000000000081526004016112c290611aad565b60405180910390fd5b6112d4816113ad565b50565b60026001540361131c576040517f08c379a000000000000000000000000000000000000000000000000000000000815260040161131390611b19565b60405180910390fd5b6002600181905550565b60018081905550565b611337611471565b73ffffffffffffffffffffffffffffffffffffffff16611355610b6e565b73ffffffffffffffffffffffffffffffffffffffff16146113ab576040517f08c379a00000000000000000000000000000000000000000000000000000000081526004016113a290611b85565b60405180910390fd5b565b60008060009054906101000a900473ffffffffffffffffffffffffffffffffffffffff169050816000806101000a81548173ffffffffffffffffffffffffffffffffffffffff021916908373ffffffffffffffffffffffffffffffffffffffff1602179055508173ffffffffffffffffffffffffffffffffffffffff168173ffffffffffffffffffffffffffffffffffffffff167f8be0079c531659141344cd1fd0a4f28419497f9722a3daafe3b4186f6b6457e060405160405180910390a35050565b600033905090565b600080fd5b600073ffffffffffffffffffffffffffffffffffffffff82169050919050565b60006114a98261147e565b9050919050565b6114b98161149e565b81146114c457600080fd5b50565b6000813590506114d6816114b0565b92915050565b6000602082840312156114f2576114f1611479565b5b6000611500848285016114c7565b91505092915050565b6000819050919050565b61151c81611509565b82525050565b60006020820190506115376000830184611513565b92915050565b61154681611509565b811461155157600080fd5b50565b6000813590506115638161153d565b92915050565b60006020828403121561157f5761157e611479565b5b600061158d84828501611554565b91505092915050565b61159f8161149e565b82525050565b60006020820190506115ba6000830184611596565b92915050565b6000819050919050565b60006115e56115e06115db8461147e565b6115c0565b61147e565b9050919050565b60006115f7826115ca565b9050919050565b6000611609826115ec565b9050919050565b611619816115fe565b82525050565b60006020820190506116346000830184611610565b92915050565b600082825260208201905092915050565b7f6e6f207374616b656420746f6b656e0000000000000000000000000000000000600082015250565b6000611681600f8361163a565b915061168c8261164b565b602082019050919050565b600060208201905081810360008301526116b081611674565b9050919050565b7f4e487b7100000000000000000000000000000000000000000000000000000000600052601160045260246000fd5b60006116f182611509565b91506116fc83611509565b9250828203905081811115611714576117136116b7565b5b92915050565b600061172582611509565b915061173083611509565b9250828201905080821115611748576117476116b7565b5b92915050565b60006040820190506117636000830185611596565b6117706020830184611513565b9392505050565b60008115159050919050565b61178c81611777565b811461179757600080fd5b50565b6000815190506117a981611783565b92915050565b6000602082840312156117c5576117c4611479565b5b60006117d38482850161179a565b91505092915050565b7f4e487b7100000000000000000000000000000000000000000000000000000000600052601260045260246000fd5b600061181682611509565b915061182183611509565b925082611831576118306117dc565b5b828204905092915050565b600061184782611509565b915061185283611509565b925082820261186081611509565b91508282048414831517611877576118766116b7565b5b5092915050565b7f5468657265206973206e6f7468696e6720746f20636c61696d21000000000000600082015250565b60006118b4601a8361163a565b91506118bf8261187e565b602082019050919050565b600060208201905081810360008301526118e3816118a7565b9050919050565b60006060820190506118ff6000830186611596565b61190c6020830185611596565b6119196040830184611513565b949350505050565b6000815190506119308161153d565b92915050565b60006020828403121561194c5761194b611479565b5b600061195a84828501611921565b91505092915050565b7f506f6f6c206174206d6178206361706163697479210000000000000000000000600082015250565b600061199960158361163a565b91506119a482611963565b602082019050919050565b600060208201905081810360008301526119c88161198c565b9050919050565b7f416d6f756e742063616e6e6f74206265207a65726f0000000000000000000000600082015250565b6000611a0560158361163a565b9150611a10826119cf565b602082019050919050565b60006020820190508181036000830152611a34816119f8565b9050919050565b7f4f776e61626c653a206e6577206f776e657220697320746865207a65726f206160008201527f6464726573730000000000000000000000000000000000000000000000000000602082015250565b6000611a9760268361163a565b9150611aa282611a3b565b604082019050919050565b60006020820190508181036000830152611ac681611a8a565b9050919050565b7f5265656e7472616e637947756172643a207265656e7472616e742063616c6c00600082015250565b6000611b03601f8361163a565b9150611b0e82611acd565b602082019050919050565b60006020820190508181036000830152611b3281611af6565b9050919050565b7f4f776e61626c653a2063616c6c6572206973206e6f7420746865206f776e6572600082015250565b6000611b6f60208361163a565b9150611b7a82611b39565b602082019050919050565b60006020820190508181036000830152611b9e81611b62565b905091905056fea2646970667358221220cce790311ef3dd22df66e3b93dd0e25df3fbe27d2529fa36dfd444f0ab2682ba64736f6c63430008110033",
  "immutableReferences": {},
  "source": "// SPDX-License-Identifier: MIT\npragma solidity ^0.8.15;\n\nimport \"@openzeppelin/contracts/access/Ownable.sol\";\nimport \"@openzeppelin/contracts/token/ERC20/IERC20.sol\";\nimport \"@openzeppelin/contracts/security/ReentrancyGuard.sol\";\n\ncontract TwinStaking is Ownable, ReentrancyGuard {\n\n   IERC20 public twinToken;\n\n   uint public poolStatus;  // 0 - Close / 1 - Open\n   uint public maxTwinInPool;\n   uint public percentageRate;  // percentage in maturity period   // represented in 1e10\n   uint public percentPerDay;\n   uint public maturityPeriod;  // Period in seconds\n   uint public totalStakedAmount;\n\n   mapping(address => uint) public userToStakeAmount;\n   mapping(address => uint) public userToStakeStart;\n   mapping(address => uint) public userHasStaked;  // 0 - False / 1 - true;\n   mapping(address => uint) public isAdmin; // 0 -False / 1 - true;\n\n\n   constructor(address _twinToken, address _admin) {\n        twinToken = IERC20(_twinToken);\n        maxTwinInPool = 1000000 * 1e18;\n        poolStatus = 1;\n        isAdmin[_admin] = 1;\n        maturityPeriod =  2592000;// 30 days in seconds\n        percentageRate = 500000000000; // \n        percentPerDay = 1369863013;\n\n   }\n\n   function changePoolStatus(uint _status) public {\n      require(isAdmin[msg.sender] == 1);\n      poolStatus = _status;\n   }   \n\n   function changeAPY(uint _apy) public returns(uint)  { // 1e10\n      require(isAdmin[msg.sender] == 1);\n      percentPerDay = _apy / 365;\n      uint ratePerMaturity = percentPerDay * (maturityPeriod / 86400);\n      percentageRate = ratePerMaturity;\n\n      return percentageRate;\n   \n   }\n\n\n   function changeMaturityPeriod(uint _period) public { // represented in seconds\n      require(isAdmin[msg.sender] == 1);\n      maturityPeriod = _period;\n      uint ratePerMaturity = percentPerDay * (maturityPeriod / 86400);\n      percentageRate = ratePerMaturity;\n\n   }\n\n   function depositTwin(uint _amount) public  {\n        require(isAdmin[msg.sender] == 1);\n        twinToken.transferFrom(msg.sender, address(this), _amount);\n   }\n\n   function withdrawTwin() public  {  \n        require(isAdmin[msg.sender] == 1);\n        uint twinBalance = twinToken.balanceOf(address(this));\n        twinToken.transfer(msg.sender, twinBalance);\n   }\n\n   function stakeToken(uint _amount) public nonReentrant {\n       require(poolStatus == 1);\n       uint balance = twinToken.balanceOf(address(this));\n       require(balance <= maxTwinInPool, \"Pool at max capacity!\");\n       require(_amount > 0, \"Amount cannot be zero\");\n       \n       if(userHasStaked[msg.sender] == 0) {\n          userHasStaked[msg.sender] = 1;\n          userToStakeStart[msg.sender] = block.timestamp;\n       }\n\n       userToStakeAmount[msg.sender] = userToStakeAmount[msg.sender] + _amount;\n       totalStakedAmount = totalStakedAmount + _amount;\n       \n       twinToken.transferFrom(msg.sender, address(this), _amount);\n       \n   }\n\n   function unstakeToken() public nonReentrant {\n       require(poolStatus == 1);\n       require(userToStakeAmount[msg.sender] > 0, \"no staked token\");\n       uint stakedAmount = userToStakeAmount[msg.sender];\n       uint resedualRewards = checkRewardCycle(msg.sender);\n       userToStakeAmount[msg.sender] = 0;\n       userHasStaked[msg.sender] = 0;\n       userToStakeStart[msg.sender] = 0;\n       totalStakedAmount = totalStakedAmount - stakedAmount;\n       twinToken.transfer(msg.sender, (stakedAmount + resedualRewards));\n   }\n\n   function claimRewards() public nonReentrant {\n      require(poolStatus == 1);\n      uint reward = checkRewardCycle(msg.sender);\n      require(reward > 0, \"There is nothing to claim!\");\n\n      twinToken.transfer(msg.sender, reward);\n \n      userToStakeStart[msg.sender] = block.timestamp;  //reset stake time after claim rewards\n\n   }\n\n   function checkRewardCycle(address _user) public view returns(uint) {\n      uint timeDifference = block.timestamp - userToStakeStart[_user]; // timeDifference in seconds \n    \n      uint userRewardCycle = timeDifference / maturityPeriod;    \n\n      uint userRewardPoints = (percentageRate * userRewardCycle);  \n\n      uint userReward = (userRewardPoints * userToStakeAmount[_user]) / 1e12;  \n      return userReward;\n \n      \n   }\n\n   function getPoolStatus() public view returns(uint) {\n      return poolStatus;\n   }\n\n   function getUserStakeAmount(address _user) public view returns(uint) {\n      return userToStakeAmount[_user];\n   }\n\n   function getMaturityPeriod() public view returns(uint) {\n      return maturityPeriod;\n   }\n\n   function getTotalStakedinPool() public view returns(uint) {\n      return totalStakedAmount;\n   }\n\n\n\n\n\n}",
  "sourcePath": "/Users/cobra/Desktop/twinstaking/contracts/TwinStaking.sol",
  "compiler": {
    "name": "solc",
    "version": "0.8.17+commit.8df45f5f.Emscripten.clang"
  },
  "schemaVersion": "3.4.11",
  "updatedAt": "2023-02-19T06:29:08.910Z",
  "devdoc": {
    "kind": "dev",
    "methods": {
      "owner()": {
        "details": "Returns the address of the current owner."
      },
      "renounceOwnership()": {
        "details": "Leaves the contract without owner. It will not be possible to call `onlyOwner` functions anymore. Can only be called by the current owner. NOTE: Renouncing ownership will leave the contract without an owner, thereby removing any functionality that is only available to the owner."
      },
      "transferOwnership(address)": {
        "details": "Transfers ownership of the contract to a new account (`newOwner`). Can only be called by the current owner."
      }
    },
    "version": 1
  },
  "userdoc": {
    "kind": "user",
    "methods": {},
    "version": 1
  }
}