{
  "contractName": "TwinStaking",
  "abi": [
    {
      "inputs": [
        {
          "internalType": "address",
          "name": "_twinToken",
          "type": "address"
        }
      ],
      "stateMutability": "nonpayable",
      "type": "constructor"
    },
    {
      "anonymous": false,
      "inputs": [
        {
          "indexed": true,
          "internalType": "address",
          "name": "previousOwner",
          "type": "address"
        },
        {
          "indexed": true,
          "internalType": "address",
          "name": "newOwner",
          "type": "address"
        }
      ],
      "name": "OwnershipTransferred",
      "type": "event"
    },
    {
      "inputs": [],
      "name": "maxTwinInPool",
      "outputs": [
        {
          "internalType": "uint256",
          "name": "",
          "type": "uint256"
        }
      ],
      "stateMutability": "view",
      "type": "function",
      "constant": true
    },
    {
      "inputs": [],
      "name": "owner",
      "outputs": [
        {
          "internalType": "address",
          "name": "",
          "type": "address"
        }
      ],
      "stateMutability": "view",
      "type": "function",
      "constant": true
    },
    {
      "inputs": [],
      "name": "poolStatus",
      "outputs": [
        {
          "internalType": "uint256",
          "name": "",
          "type": "uint256"
        }
      ],
      "stateMutability": "view",
      "type": "function",
      "constant": true
    },
    {
      "inputs": [],
      "name": "renounceOwnership",
      "outputs": [],
      "stateMutability": "nonpayable",
      "type": "function"
    },
    {
      "inputs": [
        {
          "internalType": "address",
          "name": "newOwner",
          "type": "address"
        }
      ],
      "name": "transferOwnership",
      "outputs": [],
      "stateMutability": "nonpayable",
      "type": "function"
    },
    {
      "inputs": [],
      "name": "twinToken",
      "outputs": [
        {
          "internalType": "contract IERC20",
          "name": "",
          "type": "address"
        }
      ],
      "stateMutability": "view",
      "type": "function",
      "constant": true
    },
    {
      "inputs": [
        {
          "internalType": "address",
          "name": "",
          "type": "address"
        }
      ],
      "name": "userHasStaked",
      "outputs": [
        {
          "internalType": "uint256",
          "name": "",
          "type": "uint256"
        }
      ],
      "stateMutability": "view",
      "type": "function",
      "constant": true
    },
    {
      "inputs": [
        {
          "internalType": "address",
          "name": "",
          "type": "address"
        }
      ],
      "name": "userToStakeAmount",
      "outputs": [
        {
          "internalType": "uint256",
          "name": "",
          "type": "uint256"
        }
      ],
      "stateMutability": "view",
      "type": "function",
      "constant": true
    },
    {
      "inputs": [
        {
          "internalType": "address",
          "name": "",
          "type": "address"
        }
      ],
      "name": "userToStakeStart",
      "outputs": [
        {
          "internalType": "uint256",
          "name": "",
          "type": "uint256"
        }
      ],
      "stateMutability": "view",
      "type": "function",
      "constant": true
    },
    {
      "inputs": [
        {
          "internalType": "uint256",
          "name": "_status",
          "type": "uint256"
        }
      ],
      "name": "changePoolStatus",
      "outputs": [],
      "stateMutability": "nonpayable",
      "type": "function"
    },
    {
      "inputs": [
        {
          "internalType": "uint256",
          "name": "_amount",
          "type": "uint256"
        }
      ],
      "name": "depositTwin",
      "outputs": [],
      "stateMutability": "nonpayable",
      "type": "function"
    },
    {
      "inputs": [],
      "name": "withdrawTwin",
      "outputs": [],
      "stateMutability": "nonpayable",
      "type": "function"
    },
    {
      "inputs": [
        {
          "internalType": "uint256",
          "name": "_amount",
          "type": "uint256"
        }
      ],
      "name": "stakeToken",
      "outputs": [],
      "stateMutability": "nonpayable",
      "type": "function"
    },
    {
      "inputs": [],
      "name": "unstakeToken",
      "outputs": [],
      "stateMutability": "nonpayable",
      "type": "function"
    },
    {
      "inputs": [],
      "name": "claimRewards",
      "outputs": [],
      "stateMutability": "nonpayable",
      "type": "function"
    },
    {
      "inputs": [
        {
          "internalType": "address",
          "name": "_user",
          "type": "address"
        }
      ],
      "name": "checkRewardCycle",
      "outputs": [
        {
          "internalType": "uint256",
          "name": "",
          "type": "uint256"
        }
      ],
      "stateMutability": "view",
      "type": "function",
      "constant": true
    },
    {
      "inputs": [],
      "name": "getPoolStatus",
      "outputs": [
        {
          "internalType": "uint256",
          "name": "",
          "type": "uint256"
        }
      ],
      "stateMutability": "view",
      "type": "function",
      "constant": true
    },
    {
      "inputs": [
        {
          "internalType": "address",
          "name": "_user",
          "type": "address"
        }
      ],
      "name": "getUserStakeAmount",
      "outputs": [
        {
          "internalType": "uint256",
          "name": "",
          "type": "uint256"
        }
      ],
      "stateMutability": "view",
      "type": "function",
      "constant": true
    }
  ],
  "bytecode": "0x60806040523480156200001157600080fd5b506040516200196e3803806200196e8339818101604052810190620000379190620001f5565b620000576200004b620000bf60201b60201c565b620000c760201b60201c565b6001808190555080600260006101000a81548173ffffffffffffffffffffffffffffffffffffffff021916908373ffffffffffffffffffffffffffffffffffffffff16021790555069d3c21bcecceda100000060048190555060016003819055505062000227565b600033905090565b60008060009054906101000a900473ffffffffffffffffffffffffffffffffffffffff169050816000806101000a81548173ffffffffffffffffffffffffffffffffffffffff021916908373ffffffffffffffffffffffffffffffffffffffff1602179055508173ffffffffffffffffffffffffffffffffffffffff168173ffffffffffffffffffffffffffffffffffffffff167f8be0079c531659141344cd1fd0a4f28419497f9722a3daafe3b4186f6b6457e060405160405180910390a35050565b600080fd5b600073ffffffffffffffffffffffffffffffffffffffff82169050919050565b6000620001bd8262000190565b9050919050565b620001cf81620001b0565b8114620001db57600080fd5b50565b600081519050620001ef81620001c4565b92915050565b6000602082840312156200020e576200020d6200018b565b5b60006200021e84828501620001de565b91505092915050565b61173780620002376000396000f3fe608060405234801561001057600080fd5b50600436106101165760003560e01c80638da5cb5b116100a2578063cafafef511610071578063cafafef5146102bd578063cda6b847146102d9578063e134ddd1146102f5578063f0228692146102ff578063f2fde38b1461031d57610116565b80638da5cb5b146102335780638f6ad7bc14610251578063a3d2039c1461026f578063bebaa75b1461029f57610116565b80634113f042116100e95780634113f0421461018f5780635bc6cfd1146101bf578063715018a6146101db5780637612f53c146101e55780637f79496c1461021557610116565b806320eb640c1461011b5780632daceebc146101255780632e4d44ea14610155578063372500ab14610185575b600080fd5b610123610339565b005b61013f600480360381019061013a919061106c565b610591565b60405161014c91906110b2565b60405180910390f35b61016f600480360381019061016a919061106c565b6105a9565b60405161017c91906110b2565b60405180910390f35b61018d61068c565b005b6101a960048036038101906101a4919061106c565b6107e3565b6040516101b691906110b2565b60405180910390f35b6101d960048036038101906101d491906110f9565b6107fb565b005b6101e361080d565b005b6101ff60048036038101906101fa919061106c565b610821565b60405161020c91906110b2565b60405180910390f35b61021d61086a565b60405161022a91906110b2565b60405180910390f35b61023b610874565b6040516102489190611135565b60405180910390f35b61025961089d565b60405161026691906111af565b60405180910390f35b6102896004803603810190610284919061106c565b6108c3565b60405161029691906110b2565b60405180910390f35b6102a76108db565b6040516102b491906110b2565b60405180910390f35b6102d760048036038101906102d291906110f9565b6108e1565b005b6102f360048036038101906102ee91906110f9565b61098f565b005b6102fd610c92565b005b610307610dde565b60405161031491906110b2565b60405180910390f35b6103376004803603810190610332919061106c565b610de4565b005b610341610e67565b60016003541461035057600080fd5b6000600560003373ffffffffffffffffffffffffffffffffffffffff1673ffffffffffffffffffffffffffffffffffffffff16815260200190815260200160002054116103d2576040517f08c379a00000000000000000000000000000000000000000000000000000000081526004016103c990611227565b60405180910390fd5b6000600560003373ffffffffffffffffffffffffffffffffffffffff1673ffffffffffffffffffffffffffffffffffffffff1681526020019081526020016000205490506000600560003373ffffffffffffffffffffffffffffffffffffffff1673ffffffffffffffffffffffffffffffffffffffff168152602001908152602001600020819055506000600760003373ffffffffffffffffffffffffffffffffffffffff1673ffffffffffffffffffffffffffffffffffffffff168152602001908152602001600020819055506000600660003373ffffffffffffffffffffffffffffffffffffffff1673ffffffffffffffffffffffffffffffffffffffff16815260200190815260200160002081905550600260009054906101000a900473ffffffffffffffffffffffffffffffffffffffff1673ffffffffffffffffffffffffffffffffffffffff1663a9059cbb33836040518363ffffffff1660e01b8152600401610542929190611247565b6020604051808303816000875af1158015610561573d6000803e3d6000fd5b505050506040513d601f19601f8201168201806040525081019061058591906112a8565b505061058f610eb6565b565b60066020528060005260406000206000915090505481565b600080600660008473ffffffffffffffffffffffffffffffffffffffff1673ffffffffffffffffffffffffffffffffffffffff16815260200190815260200160002054426105f79190611304565b90506000620151808261060a9190611367565b905060008164023b8d27c861061f9190611398565b9050600064e8d4a51000600560008873ffffffffffffffffffffffffffffffffffffffff1673ffffffffffffffffffffffffffffffffffffffff16815260200190815260200160002054836106749190611398565b61067e9190611367565b905080945050505050919050565b610694610e67565b6001600354146106a357600080fd5b60006106ae336105a9565b9050600081116106f3576040517f08c379a00000000000000000000000000000000000000000000000000000000081526004016106ea90611426565b60405180910390fd5b600260009054906101000a900473ffffffffffffffffffffffffffffffffffffffff1673ffffffffffffffffffffffffffffffffffffffff1663a9059cbb33836040518363ffffffff1660e01b8152600401610750929190611247565b6020604051808303816000875af115801561076f573d6000803e3d6000fd5b505050506040513d601f19601f8201168201806040525081019061079391906112a8565b5042600660003373ffffffffffffffffffffffffffffffffffffffff1673ffffffffffffffffffffffffffffffffffffffff16815260200190815260200160002081905550506107e1610eb6565b565b60056020528060005260406000206000915090505481565b610803610ebf565b8060038190555050565b610815610ebf565b61081f6000610f3d565b565b6000600560008373ffffffffffffffffffffffffffffffffffffffff1673ffffffffffffffffffffffffffffffffffffffff168152602001908152602001600020549050919050565b6000600354905090565b60008060009054906101000a900473ffffffffffffffffffffffffffffffffffffffff16905090565b600260009054906101000a900473ffffffffffffffffffffffffffffffffffffffff1681565b60076020528060005260406000206000915090505481565b60045481565b6108e9610ebf565b600260009054906101000a900473ffffffffffffffffffffffffffffffffffffffff1673ffffffffffffffffffffffffffffffffffffffff166323b872dd3330846040518463ffffffff1660e01b815260040161094893929190611446565b6020604051808303816000875af1158015610967573d6000803e3d6000fd5b505050506040513d601f19601f8201168201806040525081019061098b91906112a8565b5050565b610997610e67565b6001600354146109a657600080fd5b6000600260009054906101000a900473ffffffffffffffffffffffffffffffffffffffff1673ffffffffffffffffffffffffffffffffffffffff166370a08231306040518263ffffffff1660e01b8152600401610a039190611135565b602060405180830381865afa158015610a20573d6000803e3d6000fd5b505050506040513d601f19601f82011682018060405250810190610a449190611492565b9050600454811115610a8b576040517f08c379a0000000000000000000000000000000000000000000000000000000008152600401610a829061150b565b60405180910390fd5b60008211610ace576040517f08c379a0000000000000000000000000000000000000000000000000000000008152600401610ac590611577565b60405180910390fd5b6000600760003373ffffffffffffffffffffffffffffffffffffffff1673ffffffffffffffffffffffffffffffffffffffff1681526020019081526020016000205403610b5b576001600760003373ffffffffffffffffffffffffffffffffffffffff1673ffffffffffffffffffffffffffffffffffffffff168152602001908152602001600020819055505b81600560003373ffffffffffffffffffffffffffffffffffffffff1673ffffffffffffffffffffffffffffffffffffffff1681526020019081526020016000208190555042600660003373ffffffffffffffffffffffffffffffffffffffff1673ffffffffffffffffffffffffffffffffffffffff16815260200190815260200160002081905550600260009054906101000a900473ffffffffffffffffffffffffffffffffffffffff1673ffffffffffffffffffffffffffffffffffffffff166323b872dd3330856040518463ffffffff1660e01b8152600401610c4293929190611446565b6020604051808303816000875af1158015610c61573d6000803e3d6000fd5b505050506040513d601f19601f82011682018060405250810190610c8591906112a8565b5050610c8f610eb6565b50565b610c9a610ebf565b6000600260009054906101000a900473ffffffffffffffffffffffffffffffffffffffff1673ffffffffffffffffffffffffffffffffffffffff166370a08231306040518263ffffffff1660e01b8152600401610cf79190611135565b602060405180830381865afa158015610d14573d6000803e3d6000fd5b505050506040513d601f19601f82011682018060405250810190610d389190611492565b9050600260009054906101000a900473ffffffffffffffffffffffffffffffffffffffff1673ffffffffffffffffffffffffffffffffffffffff1663a9059cbb33836040518363ffffffff1660e01b8152600401610d97929190611247565b6020604051808303816000875af1158015610db6573d6000803e3d6000fd5b505050506040513d601f19601f82011682018060405250810190610dda91906112a8565b5050565b60035481565b610dec610ebf565b600073ffffffffffffffffffffffffffffffffffffffff168173ffffffffffffffffffffffffffffffffffffffff1603610e5b576040517f08c379a0000000000000000000000000000000000000000000000000000000008152600401610e5290611609565b60405180910390fd5b610e6481610f3d565b50565b600260015403610eac576040517f08c379a0000000000000000000000000000000000000000000000000000000008152600401610ea390611675565b60405180910390fd5b6002600181905550565b60018081905550565b610ec7611001565b73ffffffffffffffffffffffffffffffffffffffff16610ee5610874565b73ffffffffffffffffffffffffffffffffffffffff1614610f3b576040517f08c379a0000000000000000000000000000000000000000000000000000000008152600401610f32906116e1565b60405180910390fd5b565b60008060009054906101000a900473ffffffffffffffffffffffffffffffffffffffff169050816000806101000a81548173ffffffffffffffffffffffffffffffffffffffff021916908373ffffffffffffffffffffffffffffffffffffffff1602179055508173ffffffffffffffffffffffffffffffffffffffff168173ffffffffffffffffffffffffffffffffffffffff167f8be0079c531659141344cd1fd0a4f28419497f9722a3daafe3b4186f6b6457e060405160405180910390a35050565b600033905090565b600080fd5b600073ffffffffffffffffffffffffffffffffffffffff82169050919050565b60006110398261100e565b9050919050565b6110498161102e565b811461105457600080fd5b50565b60008135905061106681611040565b92915050565b60006020828403121561108257611081611009565b5b600061109084828501611057565b91505092915050565b6000819050919050565b6110ac81611099565b82525050565b60006020820190506110c760008301846110a3565b92915050565b6110d681611099565b81146110e157600080fd5b50565b6000813590506110f3816110cd565b92915050565b60006020828403121561110f5761110e611009565b5b600061111d848285016110e4565b91505092915050565b61112f8161102e565b82525050565b600060208201905061114a6000830184611126565b92915050565b6000819050919050565b600061117561117061116b8461100e565b611150565b61100e565b9050919050565b60006111878261115a565b9050919050565b60006111998261117c565b9050919050565b6111a98161118e565b82525050565b60006020820190506111c460008301846111a0565b92915050565b600082825260208201905092915050565b7f6e6f207374616b656420746f6b656e0000000000000000000000000000000000600082015250565b6000611211600f836111ca565b915061121c826111db565b602082019050919050565b6000602082019050818103600083015261124081611204565b9050919050565b600060408201905061125c6000830185611126565b61126960208301846110a3565b9392505050565b60008115159050919050565b61128581611270565b811461129057600080fd5b50565b6000815190506112a28161127c565b92915050565b6000602082840312156112be576112bd611009565b5b60006112cc84828501611293565b91505092915050565b7f4e487b7100000000000000000000000000000000000000000000000000000000600052601160045260246000fd5b600061130f82611099565b915061131a83611099565b9250828203905081811115611332576113316112d5565b5b92915050565b7f4e487b7100000000000000000000000000000000000000000000000000000000600052601260045260246000fd5b600061137282611099565b915061137d83611099565b92508261138d5761138c611338565b5b828204905092915050565b60006113a382611099565b91506113ae83611099565b92508282026113bc81611099565b915082820484148315176113d3576113d26112d5565b5b5092915050565b7f5468657265206973206e6f7468696e6720746f20636c61696d21000000000000600082015250565b6000611410601a836111ca565b915061141b826113da565b602082019050919050565b6000602082019050818103600083015261143f81611403565b9050919050565b600060608201905061145b6000830186611126565b6114686020830185611126565b61147560408301846110a3565b949350505050565b60008151905061148c816110cd565b92915050565b6000602082840312156114a8576114a7611009565b5b60006114b68482850161147d565b91505092915050565b7f506f6f6c206174206d6178206361706163697479210000000000000000000000600082015250565b60006114f56015836111ca565b9150611500826114bf565b602082019050919050565b60006020820190508181036000830152611524816114e8565b9050919050565b7f416d6f756e742063616e6e6f74206265207a65726f0000000000000000000000600082015250565b60006115616015836111ca565b915061156c8261152b565b602082019050919050565b6000602082019050818103600083015261159081611554565b9050919050565b7f4f776e61626c653a206e6577206f776e657220697320746865207a65726f206160008201527f6464726573730000000000000000000000000000000000000000000000000000602082015250565b60006115f36026836111ca565b91506115fe82611597565b604082019050919050565b60006020820190508181036000830152611622816115e6565b9050919050565b7f5265656e7472616e637947756172643a207265656e7472616e742063616c6c00600082015250565b600061165f601f836111ca565b915061166a82611629565b602082019050919050565b6000602082019050818103600083015261168e81611652565b9050919050565b7f4f776e61626c653a2063616c6c6572206973206e6f7420746865206f776e6572600082015250565b60006116cb6020836111ca565b91506116d682611695565b602082019050919050565b600060208201905081810360008301526116fa816116be565b905091905056fea26469706673582212203fabf12fd1634d127400c915a1e10b9b64b2386c3205cd5437695e9b85eb402964736f6c63430008110033",
  "immutableReferences": {},
  "source": "pragma solidity ^0.8.15;\n\nimport \"@openzeppelin/contracts/access/Ownable.sol\";\nimport \"@openzeppelin/contracts/token/ERC20/IERC20.sol\";\nimport \"@openzeppelin/contracts/security/ReentrancyGuard.sol\";\n\ncontract TwinStaking is Ownable, ReentrancyGuard {\n\n   IERC20 public twinToken;\n\n   uint public poolStatus;  // 0 - Close / 1 - Open\n   uint public maxTwinInPool;\n\n   mapping(address => uint) public userToStakeAmount;\n   mapping(address => uint) public userToStakeStart;\n   mapping(address => uint) public userHasStaked;  // 0 - False / 1 - true;\n\n\n   constructor(address _twinToken) {\n        twinToken = IERC20(_twinToken);\n        maxTwinInPool = 1000000 * 1e18;\n        poolStatus = 1;\n   }\n\n   function changePoolStatus(uint _status) public onlyOwner {\n      poolStatus = _status;\n   }   \n\n   function depositTwin(uint _amount) public onlyOwner {\n        twinToken.transferFrom(msg.sender, address(this), _amount);\n   }\n\n   function withdrawTwin() public onlyOwner {\n        uint twinBalance = twinToken.balanceOf(address(this));\n        twinToken.transfer(msg.sender, twinBalance);\n   }\n\n   function stakeToken(uint _amount) public nonReentrant {\n       require(poolStatus == 1);\n       uint balance = twinToken.balanceOf(address(this));\n       require(balance <= maxTwinInPool, \"Pool at max capacity!\");\n       require(_amount > 0, \"Amount cannot be zero\");\n       \n       if(userHasStaked[msg.sender] == 0) {\n          userHasStaked[msg.sender] = 1;\n       }\n\n       userToStakeAmount[msg.sender] = _amount;\n       userToStakeStart[msg.sender] = block.timestamp;\n       twinToken.transferFrom(msg.sender, address(this), _amount);\n       \n   }\n\n   function unstakeToken() public nonReentrant {\n       require(poolStatus == 1);\n       require(userToStakeAmount[msg.sender] > 0, \"no staked token\");\n       uint stakedAmount = userToStakeAmount[msg.sender];\n       userToStakeAmount[msg.sender] = 0;\n       userHasStaked[msg.sender] = 0;\n       userToStakeStart[msg.sender] = 0;\n       twinToken.transfer(msg.sender, stakedAmount);\n   }\n\n   function claimRewards() public nonReentrant {\n      require(poolStatus == 1);\n      uint reward = checkRewardCycle(msg.sender);\n      require(reward > 0, \"There is nothing to claim!\");\n\n      twinToken.transfer(msg.sender, reward);\n \n      userToStakeStart[msg.sender] = block.timestamp;  //reset stake time after claim rewards\n\n   }\n\n   function checkRewardCycle(address _user) public view returns(uint) {\n      uint timeDifference = block.timestamp - userToStakeStart[_user]; // timeDifference in seconds \n    \n      uint userRewardCycle = timeDifference / 86400;  // 7 days in seconds\n\n      uint userRewardPoints = (9589041096 * userRewardCycle);  \n\n      uint userReward = (userRewardPoints * userToStakeAmount[_user]) / 1e12;  //need to check precision\n      return userReward;\n \n      \n   }\n\n   function getPoolStatus() public view returns(uint) {\n      return poolStatus;\n   }\n\n   function getUserStakeAmount(address _user) public view returns(uint) {\n      return userToStakeAmount[_user];\n   }\n\n\n\n\n\n}",
  "sourcePath": "/Users/cobra/Desktop/twinstaking/contracts/TwinStaking.sol",
  "compiler": {
    "name": "solc",
    "version": "0.8.17+commit.8df45f5f.Emscripten.clang"
  },
  "schemaVersion": "3.4.11",
  "updatedAt": "2023-02-16T03:09:57.357Z",
  "networkType": "ethereum",
  "devdoc": {
    "kind": "dev",
    "methods": {
      "owner()": {
        "details": "Returns the address of the current owner."
      },
      "renounceOwnership()": {
        "details": "Leaves the contract without owner. It will not be possible to call `onlyOwner` functions anymore. Can only be called by the current owner. NOTE: Renouncing ownership will leave the contract without an owner, thereby removing any functionality that is only available to the owner."
      },
      "transferOwnership(address)": {
        "details": "Transfers ownership of the contract to a new account (`newOwner`). Can only be called by the current owner."
      }
    },
    "version": 1
  },
  "userdoc": {
    "kind": "user",
    "methods": {},
    "version": 1
  }
}